:020000040000fa
:080000000002040000000000f2
:020000040000fa
:10040000af88200000ff27000001880000000000e6
:100410000c000700207021000100200011000700df
:10042000000020000000e000020032000000020096
:10043000000000003e060200000000000040da005c
:100440000000fe004440a900600920000000e00018
:100450000300320000002000a00188004440a800f2
:100460000000060091018800800078000000eb0089
:1004700015003700e280400032a0b4009101ba00bc
:10048000e280400032a0b4009102ba00e280400055
:1004900032a0b4000002eb00472bde00f507b200eb
:1004a000602ce10004003a000059eb008301e900f0
:1004b000fdff3e00040037006128e100010032002a
:1004c0000082eb00040007001101ba000200e00006
:1004d000e8ff3a00000006003159ba008301e90044
:1004e0000c0032002159ba008301e90008003200f3
:1004f0000400e00003003a00e280400032a0b400b3
:10050000f5ff370011d9ba008301e900faff3a007c
:100510008100e800e180400032a0b4000000060045
:10052000889fbe008a9fbe00010578000100e000a0
:100530000400350008003c000000e000200032000c
:100540000500370060001000e080180002003b004a
:1005500001f02c001a0037000004be006011b80042
:100560006b0920000982cf00020039000882cf0009
:100570000441b000694252000e00320008003b0006
:1005800082817100610164008904d1000884d30074
:100590008b05e8000442e800f9ff3a000500370047
:1005a0000804440089844c008b05e9000442e900fa
:1005b000fbff3a00f80007000af0a70001f0a000d6
:1005c0004f05be004f04be000000060003f0a2006d
:1005d000889fbe008a9fbe008c1f78001401070010
:1005e0001b0133006450e1004f0032006420e10041
:1005f0005200320003826c0007003b000905d00066
:100600000306d000820f54000c065d000200390082
:1006100002003200890178000306780085825500c7
:1006200004003d000003fd008103fd008502ea0097
:100630008b854200840f720002003b0060001000b6
:10064000e08018006011b8000005eb007a28e10096
:100650000a00390006007800c75ddd00f707b20028
:10066000878075002d003700828171000a017800b3
:10067000610560008180d1000080d3008502e9001f
:10068000f9ff3b00060440008784480002003b005d
:1006900060041400e0841c000988a30007003200f5
:1006a0008a81710082817100610164008904d10036
:1006b0000884d3008b05e800170037000978a300f1
:1006c00013003a000b00e000130034008b05e90032
:1006d0000804440089844c000a4474000978a3008b
:1006e0000d003a000b00e000070034008b05e90024
:1006f0000804440089844c0001003a000b002000eb
:100700000978a300f7ff32000001eb000200370078
:10071000828171000a0178009f0007000cf0a70099
:1007200001f0a000d30037006420e10002003a008d
:10073000838f6c00d30033000801be000200be00ae
:10074000cc003700889fbe008a9fbe008c1f7800b7
:10075000b7000700be00330003866c006450e10060
:100760002e0032006420e100330032006150e100cd
:100770002f0032006120e1003100320085855500f4
:10078000eb07b00009002000080420000500370036
:100790000804440089844c000a0031000603430029
:1007a00087834b000001530081815b00f8ff330019
:1007b0000203be000800a0000804440089844c0025
:1007c000f6ff3900c639dd008301730001003200f5
:1007d000130020008904d1000884d3000998a300e5
:1007e000050032000800a7000300a0008904d10022
:1007f0000884d3008b05e8008904d1000884d30065
:100800000001eb000281d2006300070001f0a100ab
:100810000cf0a70001f0a000960037006420e10072
:10082000980032000801be000200be00f7ff37004a
:100830006120e100930032006000b800f3ff370050
:100840000000200001f82700f0ff3700889fbe005d
:100850008a9fbe008c1f7800750007007c00330063
:1008600003866c006450e100240032006420e10043
:10087000270032006150e100220032006120e100d7
:10088000210032008b854200eb07b1000134b80033
:10089000003ab8000804420089844a00013ab800ce
:1008a0000030b8008880400009014a00040033008d
:1008b0000000400081804800020149008b05e900ea
:1008c000c909dd008301700001003200130020001f
:1008d000c814de004814dd004709de001200b20033
:1008e000c808de00088470002b00070001f0a1009a
:1008f0000cf0a70001f0a0005e0037006120e100cd
:10090000600032000801be000200be00f7ff3700a1
:100910006150e100fcff3a005a003700140020004b
:100920005b003700f4ff2f00590037000001be00c4
:10093000720007000470a70003f0a10003f8a300f1
:1009400013003a006509b1001000320009003500bb
:100950006928e100020035000100280000000500c0
:1009600000004000818048008502e900fcff3a0059
:1009700000000600f88f4200050035008100d1001c
:100980000080d3008502e800fcff3a00000006006a
:100990008000eb0000000500810020006180550010
:1009a0000b003d000b00200061fe2f000100e10064
:1009b0001d00340082817100610164008904d1004e
:1009c0000884d3000000e800faff3a00710020001c
:1009d0006100640003007000020060000900320042
:1009e00061044400e0844c000988a5000500320041
:1009f0008b05e8006808e10002003a008904d10094
:100a00000884d300f20f20000258e10005003d00e9
:100a1000c75ddd00f907b200898075000800780025
:100a2000000006000bf827008b007800000005008e
:100a30000004be00310007000003be000405be0034
:100a40000200be002d000700844f75000000060064
:100a50000200be006450e100050036006420e100a1
:100a6000020036000968a30001003a000800be0039
:100a70000160a0004f0678004f05be004f04be0085
:100a800000000600f0ff2f00f1ff2700f9ff3700fc
:100a9000889fbe008a9fbe00841f7800e4ff070085
:100aa0004f00780011003300f0ff2f00838f6c009f
:100ab00006003b00040565000a00a7000800370097
:100ac00009f0a6001000200008003700820f540033
:100ad000838f5c00030039001000200001003e00fd
:100ae0000000200009f0a7000000ea004f05be004a
:100af0004f04be000000e00000000600c70ade0050
:100b0000f107b200f50fb20008003200e1cf420059
:100b1000020032000170a00024000500810f700067
:100b2000010032000408050044000500810f700038
:100b300002003a00140005008502e90000004000b0
:100b400081c04800fcff3b000170a00024000500ac
:020000040000fa
:0200000401f009
:04000000ffff0000fe
:020000040000fa
:0200000401f009
:04000400ffff0000fa
:020000040000fa
:0200000401f009
:04000800ffff0000f6
:020000040000fa
:0200000401f009
:04000c00fbff0000f6
:020000040000fa
:0200000401f009
:04001000bdff000030
:020000040000fa
:0200000401f009
:040014007fff00006a
:020000040000fa
:0200000401f009
:04001800f8ff0000ed
:020000040000fa
:100008008a1800008a1800008a1800008a18000060
:100018008a1800008a1800008a1800008a18000050
:100028008a1800008a1800008a1800008a18000040
:100038008a1800008a1800008a180000e2110000df
:100048008a1800008a1800008a1800008a18000020
:100058008a1800008a1800008a1800008a18000010
:100068008a1800008a1800008a1800008a18000000
:100078008a1800008a1800008a1800008a180000f0
:100088008a1800008a1800008a1800008a180000e0
:100098008a1800008a1800008a1800008a180000d0
:1000a8008a1800008a1800008a1800008a180000c0
:1000b8008a1800008a1800008a1800008a180000b0
:1000c8008a1800008a1800008a1800008a180000a0
:1000d8008a1800008a1800008a1800008a18000090
:1000e8008a1800008a1800008a1800008a18000080
:1000f8008a1800008a1800008a1800008a18000070
:100108008a1800008a1800008a1800008a1800005f
:100118008a1800008a1800008a1800008a1800004f
:100128008a1800008a1800008a1800008a1800003f
:100138008a1800008a1800008a1800008a1800002f
:100148008a1800008a1800008a1800008a1800001f
:100158008a1800008a1800008a1800008a1800000f
:100168008a1800008a1800008a1800008a180000ff
:100178008a1800008a1800008a1800008a180000ef
:100188008a1800008a1800008a1800008a180000df
:100198008a1800008a1800008a1800008a180000cf
:1001a8008a1800008a1800008a1800008a180000bf
:1001b8008a1800008a1800008a1800008a180000af
:1001c8008a1800008a1800008a1800008a1800009f
:1001d8008a1800008a1800008a1800008a1800008f
:1001e8008a1800008a1800008a1800008a1800007f
:0801f8008a1800008a180000bb
:020000040000fa
:100208008a1800008a1800008a1800008a1800005e
:100218008a1800008a1800008a1800008a1800004e
:100228008a1800008a1800008a1800008a1800003e
:100238008a1800008a1800008a180000e2110000dd
:100248008a1800008a1800008a1800008a1800001e
:100258008a1800008a1800008a1800008a1800000e
:100268008a1800008a1800008a1800008a180000fe
:100278008a1800008a1800008a1800008a180000ee
:100288008a1800008a1800008a1800008a180000de
:100298008a1800008a1800008a1800008a180000ce
:1002a8008a1800008a1800008a1800008a180000be
:1002b8008a1800008a1800008a1800008a180000ae
:1002c8008a1800008a1800008a1800008a1800009e
:1002d8008a1800008a1800008a1800008a1800008e
:1002e8008a1800008a1800008a1800008a1800007e
:1002f8008a1800008a1800008a1800008a1800006e
:100308008a1800008a1800008a1800008a1800005d
:100318008a1800008a1800008a1800008a1800004d
:100328008a1800008a1800008a1800008a1800003d
:100338008a1800008a1800008a1800008a1800002d
:100348008a1800008a1800008a1800008a1800001d
:100358008a1800008a1800008a1800008a1800000d
:100368008a1800008a1800008a1800008a180000fd
:100378008a1800008a1800008a1800008a180000ed
:100388008a1800008a1800008a1800008a180000dd
:100398008a1800008a1800008a1800008a180000cd
:1003a8008a1800008a1800008a1800008a180000bd
:1003b8008a1800008a1800008a1800008a180000ad
:1003c8008a1800008a1800008a1800008a1800009d
:1003d8008a1800008a1800008a1800008a1800008d
:1003e8008a1800008a1800008a1800008a1800007d
:0803f8008a1800008a180000b9
:020000040000fa
:100b5000c4a30000cabd0000d1a10000d4f1000070
:100b60003a200000002d00003e3100002eb30000ae
:100b7000e4b50000e7c40000a3bf0000e9000000e6
:100b800020200000322e0000b7c50000b5e70000ad
:100b9000c4a30000bfe900000020000020330000d3
:100ba0002ed70000d4b60000afc40000a3bf0000e1
:100bb000e900000020200000312e0000b3e4000016
:100bc000b5e70000c4a30000bfe90000002d00004d
:100bd0003e3200002eb70000c5b50000e7c400009b
:100be000a3bf0000e90000002d3e0000332e0000ee
:100bf000d7d40000b6af0000c4a30000bfe90000d6
:100c000000ca0000e4c80000eb55000069a3000022
:100c1000ba000000cae40000c8eb00004969000007
:100c2000a3ba000000ca0000e4b30000f6550000bb
:100c30006fa30000ba000000cae40000b3f6000091
:100c4000496f0000a3ba0000004900005f73000074
:100c50006574000020a30000ba20000000540000ca
:100c6000a3ba000020200000004900005f660000d9
:0c0c70006163000074a30000ba000000e3
:020000040000fa
:100c7c004800fa00881f7800cf08070032060700ea
:100c8c000d0807009608070078070700de42a90048
:100c9c00d222a900d242a90024060700a0002000fd
:100cac0010090700825a28008040eb000040eb003e
:100cbc0049060700325b280011c0b3000040eb006e
:100ccc0045060700025c280021c0b3000040eb0081
:100cdc0041060700d25c280031c0b3000040eb0095
:100cec003d060700f0002000e70507000009200082
:100cfc00e5050700000037007805070000e8b7009d
:100d0c0000c8bf000080fb00302798003e209000f8
:100d1c00e20f500056003200be209000e28f5000cf
:100d2c0004003c003e219000e10f5100080032000d
:100d3c00db0137003e209000e30f5000940032009e
:100d4c00be209000e48f50001d013200d40137000a
:100d5c0010c0b30012e8b70015c8bf00e14f500037
:100d6c00cf013a000040eb0012e8b70019c8bf00f1
:100d7c000040e80019e8b70019c8bf00e34f500065
:100d8c0003003e0019c8bf0050c79800020037008e
:100d9c0011c0b30051c798005ec0900019e8b700ad
:100dac0019c8bf00e14f50000e003a00325b28001a
:100dbc0011c0b3000040eb0007060700025c2800de
:100dcc0021c0b3000040eb0003060700d25c2800f2
:100ddc0031c0b3000040eb00ff0507000009200004
:100dec00a905070019c8bf00e24f50000e003a00d9
:100dfc00a25d280011c0b3000040eb00f60507000f
:100e0c00725e280021c0b3000040eb00f205070021
:100e1c00d25c280031c0b3000040eb00ee050700a7
:100e2c00800820009805070019c8bf00e34f500048
:100e3c009b013a00a25d280011c0b3000040eb00fa
:100e4c00e5050700025c280021c0b3000040eb0060
:100e5c00e1050700425f280031c0b3000040eb0001
:100e6c00dd05070080092000870507008c0137008d
:100e7c0020c0b30012e8b70015c8bf00e14f500006
:100e8c0087013a000040eb0012e8b70019c8bf0018
:100e9c000040e90019e8b70019c8bf000004e000e1
:100eac000300320019c8bf0040c798000200370089
:100ebc0031c0b30041c798004ec0900019e8b7008c
:100ecc0019c8bf00e14f50000e003a00325b2800f9
:100edc0011c0b3000040eb00bf050700025c280006
:100eec0021c0b3000040eb00bb050700d25c28001a
:100efc0031c0b3000040eb00b7050700000920002b
:100f0c006105070019c8bf00e24f50000e003a00ff
:100f1c00a25d280011c0b3000040eb00ae05070035
:100f2c00725e280021c0b3000040eb00aa05070048
:100f3c00d25c280031c0b3000040eb00a6050700ce
:100f4c00800820005005070019c8bf00e34f50006f
:100f5c0053013a00a25d280011c0b3000040eb0021
:100f6c009d050700025c280021c0b3000040eb0087
:100f7c0099050700425f280031c0b3000040eb0028
:100f8c0095050700800920003f0507004401370044
:100f9c0004c8bf0000417800024078000080ea00dd
:100fac008180ea0004e8b70010002000104088009f
:100fbc0015c8bf008080fb0019c8bf000080fb0073
:100fcc000088b900e10f500024003a00d222a90099
:100fdc00d242a90010c0b30016e8b7000040eb00e5
:100fec0017e8b7000040eb0018e8b7000040eb0032
:100ffc0015e8b70010c0b3001ae8b7000040eb00ca
:10100c001be8b7000040eb001ce8b70001192000fa
:10101c009140780080cfb30000c060006040b30006
:10102c0090e1b700a11820009140780080cfb30068
:10103c0000c060006040b3008ae1b700a00020004f
:10104c00304088000000eb004040880011e1a8000f
:10105c00c00020000c0507003405070015c8bf00b0
:10106c008080fb0019c8bf000080fb000088b9001d
:10107c00e20f500024003a00d242a900d222a9006b
:10108c000040eb0016e8b70010c0b30017e8b7003b
:10109c000040eb0018e8b7000040eb0015e8b70083
:1010ac000040eb001ae8b70010c0b3001be8b70013
:1010bc000040eb001ce8b7000119200091407800bb
:1010cc0080cfb30000c060006040b30090e1b70077
:1010dc00a11820009140780080cfb30000c06000c0
:1010ec006040b3008ae1b7000000eb00304088009c
:1010fc00a00020004040880011e1a800c0002000a2
:10110c00e10407000905070015c8bf008080fb003b
:10111c0019c8bf000080fb000088b900e30f500025
:10112c00df003a00d242a900d222a9000040eb0015
:10113c0016e8b7000040eb0017e8b70010c0b3008a
:10114c0018e8b7000040eb0015e8b7000040eb00d2
:10115c001ae8b7000040eb001be8b70010c0b30062
:10116c001ce8b700011920009140780080cfb30033
:10117c0000c0600090e1b700a118200091407800f9
:10118c0080cfb30000c060008ae1b7000040eb00e4
:10119c0013e8b7000040eb0014e8b7000000eb00c8
:1011ac00304088000000eb004040880011e1a900ad
:1011bc00c0002000b4040700dc040700b8003700ae
:1011cc0016c8bf00e14f50003d003a000040eb0054
:1011dc0016e8b7000040eb0017e8b7000040eb0042
:1011ec0018e8b70010c0b30015e8b70010c0b30082
:1011fc0019e8b7000040eb001ae8b7000040eb001c
:10120c001be8b7000040eb001ce8b7000000eb0047
:10121c00704088000000eb00600c88000000eb00c0
:10122c00300c8800011920009140780080cfb30069
:10123c0000c0600090e1b700a11820009140780038
:10124c0080cfb30000c060008ae1b700d642a9008d
:10125c00d622a900e242a90011e1a90080a923002d
:10126c0050408800b1040700a00020009d07070033
:10127c00825a28008040eb000040eb00d6040700a7
:10128c00325b280011c0b3000040eb00d204070011
:10129c00025c280021c0b3000040eb00ce04070024
:1012ac00d25c280031c0b3000040eb00ca04070038
:1012bc000009200074040700f000200072040700ed
:1012cc0017c8bf00e14f50003a003a000040eb0055
:1012dc0016e8b7000040eb0017e8b7000040eb0041
:1012ec0018e8b70010c0b30015e8b70010c0b30081
:1012fc0019e8b7000040eb001ae8b7000040eb001b
:10130c001be8b7000040eb001ce8b7000000eb0046
:10131c00600c88000000eb00300c88000000eb0033
:10132c0080408800011920009140780080cfb300e4
:10133c0000c0600090e1b700a11820009140780037
:10134c0080cfb30000c060008ae1b700d642a9008c
:10135c00d622a90011e1a90074040700a000200006
:10136c0060070700825a28008040eb000040eb0029
:10137c0099040700325b280011c0b3000040eb0059
:10138c0095040700025c280021c0b3000040eb006c
:10139c0091040700d25c280031c0b3000040eb0080
:1013ac008d0407000009200037040700f00020001e
:1013bc003504070018c8bf00e14f500038003a0050
:1013cc000040eb0016e8b7000040eb0017e8b70050
:1013dc000040eb0018e8b70010c0b30015e8b700e8
:1013ec0010c0b30019e8b7000040eb001ae8b700d2
:1013fc000040eb001be8b7000040eb001ce8b70016
:10140c000000eb00600c88000000eb00300c880042
:10141c00d642a900d622a9000119200091407800db
:10142c0080cfb30000c0600090e1b700a11820008d
:10143c009140780080cfb30000c060008ae1b70013
:10144c0011e1a90039040700a000200025070700be
:10145c00825a28008040eb000040eb005e0407003d
:10146c00325b280011c0b3000040eb005a040700a7
:10147c00025c280021c0b3000040eb0056040700ba
:10148c00d25c280031c0b3000040eb0052040700ce
:10149c0000092000fc030700f0002000fa030700fd
:1014ac001ac8bf000080fb00e10f500001003200a1
:1014bc008a0137000000eb003706070000047800b3
:1014cc006140b90013fc0700002798001127980011
:1014dc000800e00007003d00020020000378240013
:1014ec000e2090009e20900036fc070000279800ec
:1014fc00112798000e2090009e209000f04088004c
:10150c000141880010002000230607000004780029
:10151c006140b900fffb0700601f9800711f980025
:10152c000800e00007003d000200200003782400c2
:10153c006e189000fe18900022fc0700601f9800a7
:10154c00711f98006e189000fe18900030418800b2
:10155c0041418800200020000f060700000478009d
:10156c006140b900ebfb0700401f9800511f980029
:10157c000800e00007003d00020020000378240072
:10158c004e189000de1890000efc0700401f9800cb
:10159c00511f98004e189000de18900010418800e2
:1015ac002141880030002000fb0507000004780072
:1015bc006140b900d7fb0700201f9800311f98002d
:1015cc000800e00007003d00020020000378240022
:1015dc002e189000be189000fafb0700201f9800f0
:1015ec00311f98002e189000be18900050418800b2
:1015fc0061418800f040800001418000a21a2f0058
:10160c0023f823004cfc0700325c2f00a32124009c
:10161c008bfc0700704288008142880030418000ba
:10162c004141800002002c00f347240042fc0700db
:10163c0002002400a353240081fc070002002200b6
:10164c0023502400defb070002002400c3612400a9
:10165c007bfc070002002000133d240036fc070031
:10166c00b0428800c14288001041800021418000b6
:10167c00a21a2f0023f823002ffc0700723d2a002a
:10168c00a31c24006efc070090428800a142880035
:10169c00504180006141800002002c00f34724007f
:1016ac0025fc070002002400a353240064fc07005f
:1016bc0002002f0003502400c1fb0700020024008d
:1016cc00c36124005efc070002002800033d2400d7
:1016dc0019fc0700d0428800e1428800704080006d
:1016ec000000e8007040880012c8bf00e14f5000b5
:1016fc0005003a0050408000813e200081004000ef
:10170c00111f98000200370052408000121f9800f1
:10171c001e1890005040880012c8bf00e24f5000c5
:10172c0005003a005140800080c12f0080804000ad
:10173c00011f98000200370051408000011f9800e3
:10174c000e199000524088005140800000e22400a5
:10175c00808f500003003e005040800070179800ae
:10176c000200370001712200711798007e11900061
:10177c005240880051408000f0702200808f500051
:10178c0003003600504080006017980002003700bc
:10179c0001e22400611798006e11900052408800fd
:1017ac000040eb0012e8b700584080006140b900df
:1017bc0058fb070040179800511798000800e000ec
:1017cc0007003d0002002000037824004e1090001a
:1017dc00de1090007bfb0700401798005117980013
:1017ec00d2428000e34280004e109000de10900048
:1017fc0047fc07000000e000010034000c0037003b
:10180c0030408000ea0f5000040036003040800069
:10181c000000e9003017980002003700c02b2000b0
:10182c0030179800be109000314088000c00370033
:10183c003140800030512000808f500004003e0069
:10184c00304080000000e8002017980002003700ac
:10185c00c22b2000221798002e10900030408800d8
:10186c0090428000a142800002002800b36b24004b
:10187c0029fc07000000e00001003d0018003700c3
:10188c00007d20001706070090428000a1428000d6
:10189c0002002800b36b24001ffc07000000e000ce
:1018ac0001003d000e003700e242a80011e1a90042
:1018bc00011920009140780080cfb30000c0600077
:1018cc0090e1b700a11820009140780080cfb300c0
:1018dc0000c060008ae1b700d642a900d622a90058
:1018ec0004c8bf000004e00041003200104080003a
:1018fc00e10f500003003a000c030700a000200089
:10190c00f80507000000eb0010408800126028006a
:10191c008040eb000040eb002f030700704280007a
:10192c0081428000fefb0700ca030700000178001b
:10193c008040eb0040c0b30027030700a2602800e2
:10194c0011c0b3000040eb0023030700b04280003d
:10195c00c1428000f2fb07009203070000017800ef
:10196c0011c0b30040c0b3001b0307003261280054
:10197c0021c0b3000040eb00170307009042800029
:10198c00a1428000e6fb0700b203070000017800cb
:10199c0021c0b30040c0b3000f030700c261280090
:1019ac0031c0b3000040eb000b0307007140800016
:1019bc0020032000808f50000d003a000000eb0047
:1019cc00704088008f040700204488003144880050
:1019dc00d0428000e1428000d1fb07007103070078
:1019ec000001780031c0b30040c0b300fa02070018
:1019fc0004c8bf000004e00036003a00104080002c
:101a0c00e10f500003003a00c8020700a0002000bc
:101a1c00b40507000000eb0010408800526228005b
:101a2c0011c0b3000040eb00eb02070050408000f7
:101a3c005c0307000001780011c0b30040c0b30084
:101a4c00e5020700f26228008040eb000040eb004a
:101a5c00e102070020448000314480000200200095
:101a6c00832c240076fb0700adfb070079030700ed
:101a7c00000178008040eb0040c0b300d6020700a4
:101a8c005263280021c0b3000040eb00d2020700d3
:101a9c007140800020032000808f50000d003a0020
:101aac000000eb00704088005604070020448800ba
:101abc0031448800d0428000e142800098fb07004e
:101acc00380307000001780021c0b30040c0b30008
:101adc00c102070010c0b3001ae8b7001bc8bf0052
:101aec000080fb00e10f500001003200e5003700e0
:101afc000000eb00a8040700000478006140b90066
:101b0c0084fa070000179800111798000800e000ed
:101b1c0007003d0002002000037824000e10900006
:101b2c009e109000a7fa0700001798001117980054
:101b3c000e1090009e109000f0408800014188002b
:101b4c001000200094040700000478006140b900e4
:101b5c0070fa0700600f9800710f98000800e00001
:101b6c0007003d0002002000037824006e0890005e
:101b7c00fe08900093fa0700600f9800710f980010
:101b8c006e089000fe0890003041880041418800aa
:101b9c002000200080040700000478006140b90098
:101bac005cfa0700400f9800510f98000800e00005
:101bbc0007003d0002002000037824004e0890002e
:101bcc00de0890007ffa0700400f9800510f980034
:101bdc004e089000de0890001041880021418800da
:101bec00300020006c040700000478006140b9004c
:101bfc0048fa0700200f9800310f98000800e00009
:101c0c0007003d0002002000037824002e089000fd
:101c1c00be0890006bfa0700200f9800310f980057
:101c2c002e089000be089000504188006141880049
:101c3c00f040800001418000a21a2f0023f82300fd
:101c4c00bdfa0700325c2f00a3212400fcfa070028
:101c5c007042880081428800304180004141800000
:101c6c0002002c00f3472400b3fa07000200240002
:101c7c00a3532c00f2fa0700020022002350240088
:101c8c0050fa070002002400c3612400ecfa07009c
:101c9c0002002000133d2400a7fa0700b042880080
:101cac00c14288001041800021418000a21a2f00ff
:101cbc0023f82300a0fa0700723d2a00a31c24007d
:101ccc00dffa070090428800a14288005041800052
:101cdc006141800002002c00f347240096fa0700b3
:101cec0002002400a3532c00d5fa070002002f0099
:101cfc001350240033fa070002002400c3612400af
:101d0c00cffa070002002800033d24008afa0700de
:101d1c00d0428800e14288007042800081428000fd
:101d2c0002002600a36e2400fbfa07000000e0006e
:101d3c0001003d000c00370040408000e90f5000ce
:101d4c0004003600404080000000e900100f9800ad
:101d5c0002003700c12b2000110f98001e099000c3
:101d6c00424088000c003700414080004051200068
:101d7c00808f500004003e00404080000000e800ce
:101d8c00000f980002003700c02b2000000f9800b5
:101d9c008e08900041408800804080000000e800e0
:101dac0080408800126028008040eb000040eb006f
:101dbc00090207008140800020032000808f500022
:101dcc000a003a000000eb0080408800704280005e
:101ddc0081428000d2fa07009e02070000017800c1
:101dec008040eb0040c0b300fb010700a26028005c
:101dfc0011c0b3000040eb00f7010700b0428000b7
:101e0c00c1428000c6fa0700660207000001780094
:101e1c0011c0b30040c0b300ef01070032612800cd
:101e2c0021c0b3000040eb00eb01070090428000a2
:101e3c00a1428000bafa0700860207000001780070
:101e4c0021c0b30040c0b300e3010700c261280009
:101e5c0031c0b3000040eb00df010700d04280002e
:101e6c00e1428000aefa07004e0207000001780044
:101e7c0031c0b30040c0b300d701070010c0b3009d
:101e8c001be8b7001cc8bf000080fb00e10f50002e
:101e9c000100320098fb37000000eb00be03070086
:101eac00000478006140b9009af9070060079800b7
:101ebc00710798000800e00007003d0002002000b8
:101ecc00037824006e009000fe009000bdf907001e
:101edc0060079800710798006e009000fe0090005b
:101eec00f04088000141880020002000aa03070070
:101efc00000478006140b90086f90700400798009b
:101f0c00510798000800e00007003d000200200087
:101f1c00037824004e009000de009000a9f9070021
:101f2c0040079800510798004e009000de0090008a
:101f3c001041880021418800f04080000141800060
:101f4c00a21a2f0023f82300fbf90700325c2f00a4
:101f5c00a32124003afa07007042880081428800cd
:101f6c001041800021418000a21a2f0023f8230089
:101f7c00f1f90700723d2a00a31c240030fa070077
:101f8c0090428800a142880070428000814280000b
:101f9c000041eb007247980002802b00c36e2400b6
:101fac005dfa07000000e00001003c000200370071
:101fbc0010c0b3007047980013c8bf008040eb00fe
:101fcc0061479800e14f50000200320012c0b3008c
:101fdc0062479800fe4090006e41900002c0600085
:101fec000004e0001200320010c0b30013e8b70088
:101ffc000040eb0014e8b700011920009140780074
:10200c0080cfb30000c060006040b30090e1b70027
:10201c00a11820009140780080cfb30000c0600070
:10202c008ae1b700a00020003040880011e1a80030
:10203c0070428000814280000041eb0052479800c2
:10204c0002802000836e240031fa07000000e000bb
:10205c00010035000200370010c0b3005047980053
:10206c0014c8bf008040eb0041479800e14f50007e
:10207c000200320012c0b30042479800de409000cc
:10208c004e41900002c060000004e00012003200db
:10209c000040eb0013e8b70010c0b30014e8b70021
:1020ac00011920009140780080cfb30000c060007f
:1020bc0090e1b700a11820009140780080cfb300c8
:1020cc0000c060006040b3008ae1b700a0002000af
:1020dc004040880011e1a80013c8bf00e14f500038
:1020ec0030003a00704280008142800002002600dd
:1020fc00a36e240008fa07000000e00001003d0078
:10210c000d0037003140800040512000808f50007e
:10211c0004003e00304080000000e80010079800ea
:10212c0002003700a0002000100798009e009000cd
:10213c00314088001b003700304080000000e9006f
:10214c003040880030408000e40f500015003a0009
:10215c0011e1a900011920009140780080cfb30053
:10216c0000c0600090e1b700a118200091407800f9
:10217c0080cfb30000c060006040b3008ae1b700bc
:10218c000000eb00304088006000200040408800d8
:10219c0011e1a80010c0b30014e8b7000040eb0038
:1021ac0013e8b70014c8bf00e14f500030003a00ec
:1021bc00704280008142800002002600a36e240041
:1021cc00d5f907000000e00001003d001c003700bd
:1021dc00404080000000e900404088004040800002
:1021ec00e40f500022003a0011e1a9000000eb00be
:1021fc004040880060002000304088000119200019
:10220c009140780080cfb30000c060006040b30004
:10221c0090e1b700a11820009140780080cfb30066
:10222c0000c060008ae1b70011e1a8000040eb009b
:10223c0014e8b70010c0b30013e8b7000c00370067
:10224c004140800040512000808f500004003e002f
:10225c00404080000000e800000f780002003700ca
:10226c00a2002000020f78001e0078004040880079
:10227c00126028008040eb000040eb00d600070005
:10228c007042800081428000a5f9070071010700af
:10229c00000178008040eb0040c0b300ce00070086
:1022ac003261280021c0b3000040eb00ca000700d7
:1022bc0090428000a142800099f907006501070057
:1022cc000001780021c0b30040c0b300c200070079
:1022dc0010c0b3001ce8b70087fa37000600fa00fc
:1022ec00f0002000c0168800d0168000ef0f5000c0
:1022fc002c003200500020007a030700d01680001a
:10230c00ef0f500027003200d0168000004f7800ed
:10231c00d0168000ef0f5000fdff3a001e80fb002e
:10232c00200798002e009000eb0f50001400320094
:10233c002e009000eb0f500004003c002e0090008b
:10234c00e70f500011003200130037002e009000f0
:10235c00ed0f5000070032002e009000ee0f5000e1
:10236c00010032000c00370010002000100798000c
:10237c000e00370020002000100798000b003700db
:10238c0030002000100798000800370040002000a3
:10239c0010079800050037000000eb0010079800ac
:1023ac00020037000000eb00100798001e009000a0
:1023bc000080fa000000060000a0fe003400f800c7
:1023cc00881f780008002000a80188004f047800be
:1023dc000000fa0084c0bf0001c8b30001406000d7
:1023ec000004e0000500320030408000600c8800e2
:1023fc0040408000300c880084e0a9000080fa0086
:10240c003400f9000080fe00004006000400fa00d1
:10241c00204798000040eb0010479800150037004b
:10242c0000c8b300004f78002e4090001e406000a2
:10243c000004e00002003200c462a8000100370072
:10244c00c462a9002e409000004040002047980034
:10245c00c482a8001000200013030700c482a90046
:10246c0010002000100307001e4090000040e80000
:10247c00104798001e409000e74f5000e8ff3600d0
:10248c000080fa00000006000200fa00000f78003d
:10249c00c442a800100020000303070080cfb30043
:1024ac00daff07001e0078008040780000cfb300f0
:1024bc0000c06000d5ff07001e007800c400dd00de
:1024cc0000cfb30000c06000d0ff07005000200018
:1024dc00f5020700c442a9000080fa0000000600c3
:1024ec000200fa00004f7800c442a800a0cfb3004d
:1024fc00c6ff070000cfb3001e406000c3ff0700fb
:10250c001e80fb004400dd008040780000cfb3004b
:10251c0000c06000bdff070020002000e2020700a1
:10252c00c442a9000080fa00000006000000fa0076
:10253c0010002000d4ff070010002000e902070063
:10254c000080fa00000006000000fa00001680006f
:10255c0031fc2f00010060000016880010002000e4
:10256c00e0020700c4a2a90000032000c6ff070078
:10257c0020032000cc02070000032000c2ff07004c
:10258c00e0012000d702070000032000beff070077
:10259c0040062000c402070040062000c2020700cb
:1025ac00c0002000b8ff070040062000be02070054
:1025bc0010002000b4ff070040062000ba020700fc
:1025cc0060002000b0ff070020032000b6020700c7
:1025dc000080fa00000006000600fa00004f7800a8
:1025ec0011479800120798001e4090000080fb00d5
:1025fc00200798002e009000e10f500012003200ce
:10260c002e009000e10f500004003c002e009000c2
:10261c000000e000080032001d0037002e00900082
:10262c00e20f50000c0032002e009000e30f50001f
:10263c000d003200160037001e80fb000008b000b1
:10264c0091ff0700120037001e80fb000009b0004c
:10265c008dff07000e0037001e80fb008008b000c5
:10266c0089ff07000a0037001e80fb008009b000bc
:10267c0085ff0700060037001e0090001040780010
:10268c0097ff07001e0090000000e800100798005c
:10269c001e009000104078000004e000f6ff3a00a5
:1026ac000080fa00000006000200fa00000f78001b
:1026bc001e00780002712200110009000280d8006f
:1026cc008000780070872000008040001040780067
:1026dc0069e8b7001e0078000271220011000900a1
:1026ec000280d8008000fd00823e2000110009000d
:1026fc000280d800800078007087200000804000a5
:10270c00104078006ae8b7001e007800823e200076
:10271c00110009000280d8008000fd004206200054
:10272c00110009000280d80080007800708720001a
:10273c0000804000104078006be8b7001e00780065
:10274c0042062000110009000280d8008000fd0024
:10275c00a2002000110009000280d800800078003f
:10276c007087200000804000104078006de8b700b2
:10277c001e007800a2002000110009000280d80081
:10278c008000fd00800078007087200000804000f1
:10279c00104078006ee8b700908620000080fa00a8
:1027ac00000006000200fa00000f78001e007800fe
:1027bc0002712200110009000280d800800078000c
:1027cc0070872000008040001040780070e8b7004f
:1027dc001e00780002712200110009000280d8004e
:1027ec008000fd00823e2000110009000280d8000c
:1027fc008000780070872000008040001040780036
:10280c0072e8b7001e007800823e2000110009001b
:10281c000280d8008000fd00420620001100090053
:10282c000280d80080007800708720000080400073
:10283c001040780073e8b70000c2b30074e8b7002a
:10284c0000c2b30075e8b700008720000080fa00d2
:10285c00000006000200fa00000f78001e0078004d
:10286c0002712200110009000280d800800078005b
:10287c0070872000008040001040780062e8b700ac
:10288c001e00780002712200110009000280d8009d
:10289c008000fd00823e2000110009000280d8005b
:1028ac008000780070872000008040001040780085
:1028bc0063e8b7001e007800823e2000110009007a
:1028cc000280d8008000fd004206200011000900a3
:1028dc000280d800800078007087200000804000c3
:1028ec001040780065e8b7001e0078004206200012
:1028fc00110009000280d8008000fd00a200200019
:10290c00110009000280d800800078007087200038
:10291c00008040001040780066e8b7001e00780088
:10292c00a2002000110009000280d8008000fd00e8
:10293c0080007800708720000080400010407800f4
:10294c0067e8b700208620000080fa00000006002f
:10295c000600fa002047980031479800220798009b
:10296c0000c8b300004f78003a0037009e80fb008f
:10297c002e4090000080fb0000804000c2fe07004b
:10298c002e00900010407800d5fe07002e0090001d
:10299c000000e80020079800a0002000d1010700eb
:1029ac002e00900010407800cdfe0700a000200003
:1029bc00cc0107002e0090000000e80020079800d2
:1029cc001e4fe80070c8b3009e4f10000700360081
:1029dc003e409000e14f500004003a0000c9b300a3
:1029ec00004f780020c0b3003047980070c9b30086
:1029fc009e4f1000070036003e409000e24f500002
:102a0c0004003a0080c8b300004f780030c0b30017
:102a1c0030479800f0c8b3009e4f100007003600f6
:102a2c003e409000e34f500004003a0080c9b300d0
:102a3c00004f780040c0b30030479800f0c9b30095
:102a4c009e4f1000030036003e409000e44f5000b3
:102a5c00040032002e009000104078000004e000ca
:102a6c00c2ff3a000080fa00000006000200fa00e3
:102a7c0010c0b300004f7800d2a2a80020002000a4
:102a8c008901070012003700d2a2a900d4a2a90024
:102a9c006022200084010700d2a2a800800220003e
:102aac0081010700d4c2bf000042b2000004e00064
:102abc000300320010c0b300004f78000200370052
:102acc000040eb00004f7800000a20007601070060
:102adc001e04e000ecff3a000080fa000000060043
:102aec000400fa0020479800d2a2a8002000200081
:102afc006d0107000040eb00004f78001a00370012
:102b0c00d2a2a900d4a2a9002000200066010700cf
:102b1c002e409000614060006140600061406000a8
:102b2c00614060004501dd00412d2000914078009e
:102b3c00f0cdb30000c0600002407000d4e2b700da
:102b4c002e4090000080fb000000d1002047980030
:102b5c006004200054010700d2a2a800200020002d
:102b6c00510107001e4fe80070c0b3009e4f1000cb
:102b7c00e3ff36000080fa00000006000400fa00b3
:102b8c00d2a2a80010002000470107000000eb00b3
:102b9c00000f7800150037001e0090000000d100d7
:102bac0010079800d2a2a900d4a2a90060002000ae
:102bbc003d010700d2a2a800500020003a010700f6
:102bcc00d4c2bf000042b2000004e0000400320096
:102bdc001e009000010820000100700010079800f2
:102bec0020032000300107001e0fe80070002000b9
:102bfc009e0f1000e8ff36001e0090000080fa00c7
:102c0c00000006000e00fa00881f780097ff0700ee
:102c1c00c0ccb300b2ff070040c4b300b0ff070044
:102c2c00200320002f01070090ff0700c0ccb30049
:102c3c00abff0700e0cbb300a9ff0700cfff0700f5
:102c4c0040079800cdff0700300798003e00900029
:102c5c00c800dd004e009000008440006140b900c7
:102c6c002cf6070050079800610798000800e00058
:102c7c0007003d0002002000037824005e00900055
:102c8c00ee0090004ff6070050079800610798007f
:102c9c0002002000830c24005e009000ee009000e7
:102cac00e7f60700008fbe001e00be004f04780040
:102cbc000080fa00000006000000fa00c602a8001e
:102ccc00c622a800c642a800c662a800c682a800f8
:102cdc00c122a800c142a80021e3a9002143a900f8
:102cec0023c3bf007f40600001c6b30001407000e9
:102cfc0023e3b70020c0b30024e3b70025e3a90009
:102d0c0000ff2f00601988003132200091407800bc
:102d1c00c0cfb30000c0600023e3b7002063a9005c
:102d2c00f0002000801988002023a9001132200017
:102d3c0091407800c0cfb30000c0600021e3b70021
:102d4c00400020009019880021e3a8000080fa00c0
:102d5c00000006000200fa00000f78001e00780048
:102d6c00401988002023a80010002000ce00070086
:102d7c002023a90020c3bf00614060000004e000d4
:102d8c00fcff320000188000404488004044800062
:102d9c000080fa00000006000800fa0030079800d6
:102dac000000eb00000f7800060037003e0090009a
:102dbc00e8ff0700ae00900000804000200798005c
:102dcc001e0fe800d00120009e0f1000f7ff360008
:102ddc002e009000e2012000110009000280d800b2
:102dec00100798000000eb00200798001e009000d0
:082dfc000080fa00000006004f
:020000040000fa
:102e040088080000020000000000000062080000c2
:102e1400220000000200000030302e00303030006c
:102e240000303000302e3000300030002e303000c2
:102e3400303000003031320033343500363738005a
:102e440039000000000000000008000062000000db
:102e5400020000000000000000000000000000006c
:102e640000983a000000000000000000000000008c
:102e7400010000000001000000000000000000004c
:102e8400000000000000000000000000000000003e
:102e9400000000000000000000000000000000002e
:102ea400000000000000000000000000000000001e
:102eb400000000000000000000000000000000000e
:102ec40000000000000000000000000000000000fe
:102ed400000000000000000084080000040000005e
:082ee4000000000000000000e6
:020000040000fa
:102eec000000fa00011920009140780080cfb30057
:102efc0000c0600090e1b7009061a9000000eb00f9
:102f0c00700c8800011920009140780080cfb3002c
:102f1c0000c060006040b30090e1b700a118200031
:102f2c009140780080cfb30000c060008ae1b70008
:102f3c008a61a9000000eb00400c8800a118200059
:102f4c009140780080cfb30000c060006040b300b7
:102f5c008ae1b70011e1a9001061a9001021a900b4
:102f6c0011a1a90010c1a900011120009140780005
:102f7c00f0ccb30000c0600010e1b7000000eb0023
:102f8c00300888005053200060088800710a200027
:102f9c0091407800f0c8b30000c0600001c6b300d7
:102fac0001407000a7e0b70084e0a90094e0a800fd
:102fbc000080fa00000006000000fa000000eb00a0
:102fcc00203a880060022000303a880043c7bf00d6
:102fdc0002c7b3008240600000c3b30080cf500032
:102fec00faff3a0042c7bf000042b2000004e00002
:102ffc00fcff32000080eb00501988000080eb00d1
:10300c00601988000080eb00601b88000080eb00da
:10301c00001688000080eb00301688000080eb0062
:10302c00601688000080eb00901688000080eb0092
:10303c00f01688000080fa00000006000000fa007c
:10304c0005e1a90004c1a9004110200091407800bd
:10305c0000c3b30000c0700004e1b70005a1a900d3
:10306c000421a9000441a9000000eb00000888001d
:10307c0090d0230010088800510a2000914078005d
:10308c00f0c8b30000c0600001c2b3000140700082
:10309c00a5e0b7008460a9009460a80005e1a80031
:1030ac000080fa00000006000400fa0010079800e7
:1030bc0080c0b300004f78001e4fe9001e04e000f2
:1030cc00fdff3a001e0090000000e9001007980078
:1030dc001e0090000000e000f5ff3a000080fa00ae
:1030ec00000006000200fa00000f7800803e20006d
:1030fc00edff07001e0fe9001e00e000fbff3a0089
:08310c000080fa00000006003b
:020000040000fa
:043114000000fe00b9
:00000001FF
